:100000000C9471010C94A2010C94A2010C94A20115
:100010000C94A2010C94A2010C94A2010C94A201D4
:100020000C94A2010C94A2010C94F5060C944707C1
:100030000C94A2010C94A2010C94A2010C94A201B4
:100040000C94A2010C94A2010C94A2010C94A201A4
:100050000C94A2010C94A2010C94A2010C944B06E6
:100060000C94A2010C94BF060C9495060C94A2016A
:100070000C94A2010C94A2010C94A2010C94A20174
:100080000C94A2010C94A2010C94A2010C94A20164
:100090000C94A2010C94A2010C94A2010C94A20154
:1000A0000C94A2010C94A2010C94A2010C94A20144
:1000B0000C94A2010C94A2010C94A2010C94A20134
:1000C0000C94A2010C94A2010C94A2010C94A20124
:1000D0000C94A2010C94A2010C94A2010C94A20114
:1000E0000C94A2010C9414030C943C030C94F102A4
:1000F0000C941E030C946E030C94CD020C94C2015C
:100100000C94F9010C94F50A0C94E7010C94CC01C1
:100110000C94D4010C9450090C94D5020C94BA0A96
:100120000C94F5010C94E1010C9424040C94AF029E
:100130000C94B9020C949F030C94D7010C94070201
:100140000C94E7020C944E0A0C94EB010C94610A97
:100150000C9403020C9491030C94DF090C947D031E
:100160000C94AA020C9441030C9428030C94C8012B
:100170000C9449090C94C3020C94370A0C94FB02AA
:100180000C94CF090C9402020C94A0090C94C7099A
:100190000C94EF010C9432030C94A2020C94C80B43
:1001A0000C94D7030C94EF090C94DD020C940A0311
:1001B0000C9433090C94D0010C94DD010C94FD01D6
:1001C000000020002300260029002C002F00320010
:1001D00000010000030106010901000021002400C4
:1001E00027002A002D003000330001010000040127
:1001F00007010A0100002200250028002B002E0024
:100200003100340002010000050108010B01050561
:100210000505070508080808020202020A0A08087C
:1002200004040404010101010101010103030303AA
:1002300003030303040707070C0C0C0C0C0C0C0C39
:100240000202020206060606060606060B0B0B0B4A
:100250000B0B0B0B0102102020080810204010206F
:10026000408002010201080402010102040810207A
:100270004080804020100804020180040201804078
:1002800020100804020108040201010204081020E1
:100290004080010204081020408000000A0B02097F
:1002A0000C0D0E0807030401000000000000000010
:1002B000000000000000000000000000000000003E
:1002C00000000000000012111000000000000000FB
:1002D000000000000000000000000000000000001E
:1002E000C80B11241FBECFEFD1E2DEBFCDBF00E0AF
:1002F0000CBF12E0A0E0B2E0E0ECFBE100E00BBFDD
:1003000002C007900D92AA34B107D9F723E0AAE4FE
:10031000B2E001C01D92A235B207E1F711E0C1E7DA
:10032000D1E000E006C021970109802FFE010E9464
:10033000B40DC037D10780E00807A9F70E94DD0798
:100340000C94DE0D0C9400008150823108F05AC0EC
:10035000E82FF0E08827E055FE4F8F4F0C94B40D46
:10036000D001D401C201C801CC010202D701DD01D4
:10037000E101E701EB01EF01F501F9010202FD01E5
:1003800003020702809180008F7780938000089598
:10039000809180008F7DF9CF80918000877FF5CF9D
:1003A00084B58F7784BD089584B58F7DFBCF809110
:1003B000B0008F778093B00008958091B0008F7D5A
:1003C000F9CF809190008F7780939000089580916D
:1003D00090008F7DF9CF80919000877FF5CF80913D
:1003E000A0008F778093A00008958091A0008F7D5A
:1003F000F9CF8091A000877FF5CF809120018F7782
:10040000809320010895809120018F7DF9CF809104
:100410002001877FF5CF1F93CF93DF93282F30E004
:10042000F901E656FD4F8491F901EC5AFD4FD49144
:10043000F901E25FFD4FC491CC23A9F0162F811181
:100440000E94A401EC2FF0E0EE0FFF1FEC50FE4FD6
:10045000A591B4918FB7F894EC91111108C0D09583
:10046000DE23DC938FBFDF91CF911F910895DE2BA8
:10047000F8CFCF93DF9390E0FC01EC5AFD4F24912D
:10048000825F9D4FFC0184918823D1F090E0880F1A
:10049000991FFC01E652FE4FA591B491FC01EC506E
:1004A000FE4FC591D49161110EC09FB7F8948C9105
:1004B000E22FE0958E238C932881E223E8839FBF6F
:1004C000DF91CF9108958FB7F894EC91E22BEC93E4
:1004D0008FBFF6CF1F93CF93DF93182FEB0161E00F
:1004E0000E943902209739F460E0812FDF91CF918B
:1004F0001F910C940B02CF3FD10511F461E0F5CFB1
:10050000E12FF0E0E656FD4FE491E150E23108F0D2
:10051000B3C0F0E08827E057FD4F8F4F0C94B40D27
:10052000A202AA02AF02B902C3023C03CD02D50265
:10053000DD02E702F102FB020A0314033C031E037F
:100540002803320384B5806884BDC7BDDF91CF9195
:100550001F91089584B5806284BDC8BDF7CF809196
:100560008000806880938000D0938900C0938800C9
:10057000EDCF80918000806280938000D0938B00CB
:10058000C0938A00E3CF80918000886080938000D0
:10059000D0938D00C0938C00D9CF8091B00080683B
:1005A0008093B000C093B300D1CF8091B00080623F
:1005B0008093B000C093B400C9CF80919000806850
:1005C00080939000D0939900C0939800BFCF809102
:1005D0009000806280939000D0939B00C0939A001B
:1005E000B5CF80919000886080939000D0939D005B
:1005F000C0939C00ABCF8091A00080688093A00046
:100600008091A0008F7B8093A000D093A900C0931D
:10061000A8009CCF8091A00080628093A000D0931E
:10062000AB00C093AA0092CF8091A0008860809315
:10063000A000D093AD00C093AC0088CF8091200182
:10064000806880932001D0932901C09328017ECF38
:1006500080912001806280932001D0932B01C09370
:100660002A0174CF80912001886080932001D0936B
:100670002D01C0932C016ACFC038D1050CF03ECFBC
:1006800033CFAF92BF92CF92DF92EF92FF920F9350
:100690001F93CF93DF936C017B018B01040F151F18
:1006A000EB015E01AE18BF08C017D10759F0699180
:1006B000D601ED91FC910190F081E02DC6011995D4
:1006C000892B79F7C501DF91CF911F910F91FF9091
:1006D000EF90DF90CF90BF90AF900895FC01538DC5
:1006E000448D252F30E0842F90E0821B930B54170C
:1006F00010F0CF96089501970895FC01918D828D99
:10070000981761F0A28DAE0FBF2FB11D5D968C9131
:10071000928D9F5F9F73928F90E008958FEF9FEF70
:100720000895FC01918D828D981731F0828DE80F2C
:10073000F11D858D90E008958FEF9FEF0895FC01E6
:10074000918D228D892F90E0805C9F4F821B9109B3
:100750008F739927089585EB92E00E949F0321E013
:10076000892B09F420E0822F0895FC01A48DA80FA5
:10077000B92FB11DA35ABF4F2C91848D90E00196E3
:100780008F739927848FA689B7892C93A089B18903
:100790008C91837080648C93938D848D981306C0A4
:1007A0000288F389E02D80818F7D80830895EF9208
:1007B000FF920F931F93CF93DF93EC0181E0888F1B
:1007C0009B8D8C8D98131AC0E889F989808185FFEB
:1007D00015C09FB7F894EE89FF896083E889F9898D
:1007E00080818370806480839FBF81E090E0DF918F
:1007F000CF911F910F91FF90EF900895F62E0B8DE2
:1008000010E00F5F1F4F0F731127E02E8C8D8E119C
:100810000CC00FB607FCFACFE889F989808185FF03
:10082000F5CFCE010E94B503F1CFEB8DEC0FFD2F7C
:10083000F11DE35AFF4FF0829FB7F8940B8FEA89BE
:10084000FB8980818062CFCFCF93DF93EC01888DCD
:100850008823B9F0AA89BB89E889F9898C9185FD3B
:1008600003C0808186FD0DC00FB607FCF7CF8C91C9
:1008700085FFF2CF808185FFEDCFCE010E94B503C9
:10088000E9CFDF91CF91089580E090E0892B29F0A6
:100890000E94AB0381110E94000080E090E0892B50
:1008A00049F080E090E0892B29F00E94000081113E
:1008B0000E94000080E090E0892B49F080E090E009
:1008C000892B29F00E94000081110E94000080E025
:1008D00090E0892B49F080E090E0892B29F00E947C
:1008E000000081110C94000008952F923F924F92C6
:1008F0005F926F927F928F929F92AF92BF92CF92B0
:10090000DF92EF92FF920F931F93CF93DF93EC014F
:100910008C809D80AE80BF80888599858401081B6E
:10092000190BB801012E000C880B990B0E94E70CE3
:100930009B01AC01688179818A819B810E94420C74
:100940000E94AF0C6B016E847F84A0910402B09171
:100950000502AC019B010E94BC0D1B012C018C8582
:100960009D85A801481B590B20910202309103027A
:10097000429FC001439F900D529F900D1124092E5C
:10098000000CAA0BBB0BA2019101281B390B4A0BCF
:100990005B0BCA01B9019301072C000C440B550BEA
:1009A000620F731F841F951F209100023091010276
:1009B000032E000C440B550B0E94950D88869986DA
:1009C000AA86BB8688899989AA89BB89820F931FC9
:1009D000A41FB51F8F3F9105A105B10574F58230A5
:1009E0003FEF9307A307B3076CF160914C0270913E
:1009F0004D026C9D90016D9D300D7C9D300D11243C
:100A0000620E731E7F866E86888B998BAA8BBB8B3A
:100A10001D870C87DF91CF911F910F91FF90EF9071
:100A2000DF90CF90BF90AF909F908F907F906F900E
:100A30005F904F903F902F9008958FEF90E0A0E04F
:100A4000B0E0E2CF81E09FEFAFEFBFEFDDCFEEE6AA
:100A5000F2E01082118212821382809182029091C0
:100A60008302A0918402B091850284839583A6833A
:100A7000B78380879187A287B387108A118A128AE9
:100A8000138A1586148617861686E6E5F2E010822C
:100A900011821282138280916A0290916B02A0915E
:100AA0006C02B0916D0284839583A683B78380879F
:100AB0009187A287B387108A118A128A138A1586B2
:100AC0001486178616860895FC0101900020E9F728
:100AD0003197AF01481B590BBC0185EB92E00C9498
:100AE0004103CF93DF930E946405EC0180E392E021
:100AF0000E9464058C0F9D1FDF91CF9108958F9206
:100B00009F92AF92BF92CF92DF92EF92FF920F939C
:100B10001F93CF93DF93CDB7DEB7A1970FB6F894AD
:100B2000DEBF0FBECDBF6B017C01F7FE41C06DE2A1
:100B300085EB92E00E94D7038C0122273327A9017D
:100B40002C193D094E095F0919A2CE0181967C013D
:100B50009AE0892E912CA12CB12CCA01B901A501D2
:100B600094010E94730D605DF70162937F0121156E
:100B700031054105510589F790E080E0309719F083
:100B8000CF010E946405800F911FA1960FB6F894C3
:100B9000DEBF0FBECDBFDF91CF911F910F91FF90B0
:100BA000EF90DF90CF90BF90AF909F908F9008957F
:100BB000AC019B0119A28E010F5D1F4F8AE0C82E68
:100BC000D12CE12CF12CCA01B901A70196010E9498
:100BD000730D605DF80162938F01211531054105A8
:100BE000510589F790E080E0309779F2CF010E94BB
:100BF0006405CBCFCF93DF930E947F05EC0180E3A8
:100C000092E00E9464058C0F9D1FDF91CF910895A3
:100C1000CF93DF93EB0120E097FF04C0919581957E
:100C2000910921E0BC018F3F910519F014F06FEF9D
:100C300070E0211122C08AE00E946A0270E060E048
:100C400086E00E946A0280E0D7FF04C0D195C1957A
:100C5000D10981E0BE01CF3FD10519F014F06FEF4B
:100C600070E0811111C089E00E946A0270E060E0CA
:100C700085E0DF91CF910C946A0286E00E946A02BF
:100C800070E060E08AE0DDCF85E00E946A0270E0FB
:100C900060E089E0EECF1F920F920FB60F92112401
:100CA0002F933F938F939F93AF93BF938091B10204
:100CB0009091B202A091B302B091B4023091B0020F
:100CC00023E0230F2D3758F50196A11DB11D209368
:100CD000B0028093B1029093B202A093B302B0939A
:100CE000B4028091AC029091AD02A091AE02B0919D
:100CF000AF020196A11DB11D8093AC029093AD028D
:100D0000A093AE02B093AF02BF91AF919F918F912C
:100D10003F912F910F900FBE0F901F90189526E8CE
:100D2000230F0296A11DB11DD2CF1F920F920FB6B5
:100D30000F9211240BB60F922F933F934F935F9313
:100D40006F937F938F939F93AF93BF93EF93FF9393
:100D500085EB92E00E94B503FF91EF91BF91AF91B7
:100D60009F918F917F916F915F914F913F912F91C3
:100D70000F900BBE0F900FBE0F901F9018951F92F3
:100D80000F920FB60F9211240BB60F922F938F93E1
:100D90009F93EF93FF93E091C502F091C60280818B
:100DA000E091CB02F091CC0282FD1DC09081809138
:100DB000CE028F5F8F732091CF02821741F0E091B6
:100DC000CE02F0E0EB54FD4F958F8093CE02FF9161
:100DD000EF919F918F912F910F900BBE0F900FBEAF
:100DE0000F901F9018958081F2CF1F920F920FB62F
:100DF0000F9211240BB60F924F935F936F937F93D3
:100E00008F939F93AF93BF93EF93FF93E0914B0228
:100E1000EE0FEE0FE0934B0286B190E044E0959523
:100E200087954A95E1F783709927E82BE0934B0269
:100E300040916A0250916B0260916C0270916D0258
:100E4000EF70F0E0E25FFD4F9081892F990F990BD1
:100E5000AA0BBB0B840F951FA61FB71F80936A02B6
:100E600090936B02A0936C02B0936D02FF91EF918F
:100E7000BF91AF919F918F917F916F915F914F91B2
:100E80000F900BBE0F900FBE0F901F9018951F92E2
:100E90000F920FB60F9211240BB60F924F935F93E0
:100EA0006F937F938F939F93AF93BF93EF93FF9332
:100EB000E0914A02EE0FEE0FE0934A0289B190E012
:100EC000959587959595879583709927E82BE0935D
:100ED0004A02409182025091830260918402709193
:100EE0008502EF70F0E0E25FFD4F9081892F990F4E
:100EF000990BAA0BBB0B840F951FA61FB71F8093DE
:100F0000820290938302A0938402B0938502FF91A2
:100F1000EF91BF91AF919F918F917F916F915F9171
:100F20004F910F900BBE0F900FBE0F901F90189512
:100F3000CF92DF92EF92FF920F931F93E82FF92F3A
:100F400005C0015011092109310961F190819623F1
:100F50009417B9F305C0015011092109310911F1A4
:100F6000908196239413F7CFC12CD12CE12CF12C36
:100F70000AC08FEFC81AD80AE80AF80A0C151D052E
:100F80002E053F0579F080818623841791F36C2D1F
:100F90007D2D8E2D9F2D1F910F91FF90EF90DF9053
:100FA000CF90089560E070E080E090E01F910F9195
:100FB000FF90EF90DF90CF900895CF93DF9300D014
:100FC00000D000D01F92CDB7DEB7789484B5826090
:100FD00084BD84B5816084BD85B5826085BD85B5DD
:100FE000816085BD80916E00816080936E0010925B
:100FF00081008091810082608093810080918100D6
:101000008160809381008091800081608093800066
:101010008091B10084608093B1008091B0008160C4
:101020008093B000809191008260809391008091C4
:101030009100816080939100809190008160809305
:1010400090008091A10082608093A1008091A10016
:1010500081608093A1008091A00081608093A000B6
:101060008091210182608093210180912101816022
:1010700080932101809120018160809320018091E3
:101080007A00846080937A0080917A0082608093F5
:101090007A0080917A00816080937A0080917A0052
:1010A000806880937A001092C100E091C502F091AF
:1010B000C60282E08083E091C502F091C6021082F0
:1010C000E091C102F091C2021082E091C302F0915E
:1010D000C40280E180831092CD02E091C902F091B8
:1010E000CA0286E08083E091C702F091C802808145
:1010F00080618083E091C702F091C802808188609E
:101100008083E091C702F091C8028081806880836B
:10111000E091C702F091C80280818F7D8083529850
:1011200053983C983D985A9A5B9A449A459A809174
:101130006D008C6080936D0080916C008063809363
:101140006C008091680086608093680061E08CE0AC
:101150000E940B0261E08DE00E940B020E942705B5
:101160002AE3822E912CA12CB12C32E0232E312C9B
:10117000EE24E394F12C58E9C52E52E0D52E85EBF0
:1011800092E00E949F03181619060CF06FC285EBBF
:1011900092E00E947D032091AA023091AB028D3033
:1011A00009F026C22130310509F052C0E091A802B1
:1011B000F091A902E856FD4F1082DA86C98688E9C7
:1011C00092E00E94F50B8C01092E000CAA0BBB0BC0
:1011D0008093520290935302A0935402B09355020D
:1011E00088E892E00E94F50BBC012C01990F66087B
:1011F000770840924E0250924F02609250027092D5
:101200005102E0918702E156E83108F0EEC10E2E5E
:10121000000CFF0B8827E05FF64F8F4F0C94B40D46
:1012200050094909DF09A009370AF50AF50AF50A44
:10123000F50AF50AF50AF50A610AF50ABA0AEF098C
:10124000F50A4E0AF50AF50A3309F50ACF09C70966
:101250002230310509F0B1CFE091A802F091A90246
:10126000E857FD4FA9CF8E010F5F1F4FAE01475FBB
:101270005F4F68E372E089859A850E94130C00979E
:1012800009F49AC10E94F50BF801819391938F01A3
:10129000EDCF60E071EE80E090E00E94FA0528C09A
:1012A000802F063310F08AEC800F20917B00982F5E
:1012B0009870277F922B90937B0087708064809337
:1012C0007C0080917A00806480937A0080917A001B
:1012D00086FDFCCF6091780070917900072E000C9C
:1012E000880B990B0E947F0580E392E00E946405C1
:1012F00010928702A8E9B2E0E0E11D92EA95E9F7D1
:10130000E8E8F2E0DF0120E11D922A95E9F710926A
:1013100052021092530210925402109255021092EF
:101320004E0210924F0210925002109251021092EF
:10133000AB021092AA021092A9021092A8021FCF2B
:1013400098013327F901E656FD4F8491F901EC5AD3
:10135000FD4F1491F901E25FFD4F049170E060E0F0
:10136000002309F4BBCF81110E94A401E02FF0E01B
:10137000EE0FFF1FE054FE4FA591B491EC911E2398
:1013800091E080E009F490E0692F782FA7CF802FBB
:101390000E946A0283E392E00E947105A9CF60E097
:1013A000411451046104710431F04A9445284628DF
:1013B000472881F761E0802F0E940B02EBCF60E0AD
:1013C000411451046104710431F04A9445284628BF
:1013D000472801F761E0802F0E943902DBCF61E0EE
:1013E000802F0E94390260E0802F0E940B0283E070
:1013F00090E00197F1F761E0802F0E940B028FE0EF
:1014000090E00197F1F760E0802F0E940B0260E00E
:10141000802F0E9439021127F801EC5AFD4F649188
:10142000F801E25FFD4FE491F0E0EE0FFF1FE054A2
:10143000FE4F8591949100E412E42FE030E0462FB6
:101440000E949807611571058105910529F06F5F6C
:101450007F4F8F4F9F4F9F70A50194010E94950D64
:10146000CA01B9010E94E70C0E94AF0C16CF60912F
:1014700082027091830280918402909185020E9481
:101480007F0586E392E00E94640560916A02709194
:101490006B0280916C0290916D02FFCE10928202DD
:1014A00010928302109284021092850210926A02B6
:1014B00010926B0210926C0210926D020E9427052E
:1014C00069CF2FB7F8948091B1029091B202A091A8
:1014D000B302B091B4022FBF80930602909307022B
:1014E000A0930802B0930902409052025090530218
:1014F00060905402709055024114510461047104CB
:10150000A9F580914E0290914F02A0915002B091A6
:101510005102892B8A2B8B2B49F570E060E090E01B
:1015200080E00E9408060E94270510928602C301EF
:10153000B2010E94E70C60936E0270936F02809379
:1015400070029093710260914E0270914F028091EF
:101550005002909151020E94E70C609356027093E2
:101560005702809358029093590214CFA1E0A093A0
:101570008602DDCF2FB7F8948091B1029091B2022C
:10158000A091B302B091B4022FBF80930602909352
:101590000702A0930802B09309020E942705109247
:1015A000860260914E0270914F028091520290919A
:1015B00053020E940806EECE89819A81909305021B
:1015C000809304028B819C8190930302809302029A
:1015D0008D819E8190934D0280934C028F819885DE
:1015E0009093010280930002D5CE8AE392E0D4CE9C
:1015F0008032C1F42115310529F4F092AB02E0925A
:10160000AA02BDCD2130310509F0B9CDE091A80283
:10161000F091A902E856FD4F10823092AB02209261
:10162000AA0289CE2115310519F480938702A7CD2E
:101630002130310579F42091A8023091A902F901F5
:10164000E856FD4F80832F5F3F4F3093A9022093D0
:10165000A80295CD2230310509F091CD2091A80244
:101660003091A902F901E857FD4FECCF2FB7F8945C
:101670008091B1029091B202A091B302B091B402F4
:101680002FBF40900A0250900B0260900C027090A5
:101690000D02481659066A067B0608F03FC0809185
:1016A000820290918302A0918402B091850280937E
:1016B000720290937302A0937402B09375028091AA
:1016C0006A0290916B02A0916C02B0916D028093BE
:1016D0005A0290935B02A0935C02B0935D028091EA
:1016E0008602811142C080917A0290917B02892BFF
:1016F00031F48091620290916302892B11F00E9473
:10170000270581E2480E511C611C711C40920A029F
:1017100050920B0260920C0270920D022FB7F89457
:101720008091B1029091B202A091B302B091B40243
:101730002FBF4091060250910702609108027091FC
:101740000902841B950BA60BB70B813D9740A105A1
:10175000B10540F070E060E090E080E00E94080693
:10176000109286020E9444040ACD86E592E00E940F
:1017700075048EE692E00E94750460916602709195
:10178000670280917E0290917F020E940806B9CF85
:10179000E5EBF2E01382128288EE93E0A0E0B0E085
:1017A00084839583A683B78382E292E091838083CA
:1017B00085EC90E09587848784EC90E09787868716
:1017C00080EC90E0918B808B81EC90E0938B828B0E
:1017D00082EC90E0958B848B86EC90E0978B868BE7
:1017E000118E128E138E148E0895FC01882799276E
:1017F000E89421912032E9F3293010F02E30C8F31B
:101800002B3241F02D3239F4689404C00E943A0C16
:10181000820F911D219120532A30C0F31EF4909520
:1018200081959F4F0895FA01A191B081009719F415
:101830001097E1F0CD01DC01CD010D90002011F4F5
:10184000C00113C0FB012191222319F02015D9F703
:10185000F3CFFB012191201519F41E92119606C0B9
:101860002223C1F70D900020A1F7D001FA01A19326
:10187000B08308957AE0979F902D879F802D910DDA
:10188000112408955058BB27AA270E945A0C0C9483
:10189000390D0E942B0D38F00E94320D20F039F4E2
:1018A0009F3F19F426F40C94280D0EF4E095E7FB05
:1018B0000C94220DE92F0E944A0D58F3BA176207C3
:1018C00073078407950720F079F4A6F50C946C0D46
:1018D0000EF4E0950B2EBA2FA02D0B01B90190014B
:1018E0000C01CA01A0011124FF27591B99F0593F8F
:1018F00050F4503E68F11A16F040A22F232F342FD7
:101900004427585FF3CF469537952795A795F04024
:101910005395C9F77EF41F16BA0B620B730B840B39
:10192000BAF09150A1F0FF0FBB1F661F771F881FF1
:10193000C2F70EC0BA0F621F731F841F48F4879549
:1019400077956795B795F7959E3F08F0B0CF93953B
:10195000880F08F09927EE0F9795879508950E94B4
:10196000B60C6894B1110C946D0D08950E94520D3F
:1019700088F09F5798F0B92F9927B751B0F0E1F050
:10198000660F771F881F991F1AF0BA95C9F714C000
:10199000B13091F00E946C0DB1E008950C946C0D83
:1019A000672F782F8827B85F39F0B93FCCF3869539
:1019B00077956795B395D9F73EF490958095709596
:1019C00061957F4F8F4F9F4F0895E89409C097FB13
:1019D0003EF490958095709561957F4F8F4F9F4F06
:1019E0009923A9F0F92F96E9BB279395F69587954A
:1019F00077956795B795F111F8CFFAF4BB0F11F40D
:101A000060FF1BC06F5F7F4F8F4F9F4F16C08823B3
:101A100011F096E911C0772321F09EE8872F762FE9
:101A200005C0662371F096E8862F70E060E02AF02A
:101A30009A95660F771F881FDAF7880F9695879516
:101A400097F9089597F99F6780E870E060E008953E
:101A50009FEF80EC089500240A94161617061806C6
:101A60000906089500240A941216130614060506A2
:101A70000895092E0394000C11F4882352F0BB0F33
:101A800040F4BF2B11F460FF04C06F5F7F4F8F4F96
:101A90009F4F089557FD9058440F551F59F05F3FD1
:101AA00071F04795880F97FB991F61F09F3F79F080
:101AB00087950895121613061406551FF2CF469502
:101AC000F1DF08C0161617061806991FF1CF869584
:101AD0007105610508940895E894BB276627772768
:101AE000CB0197F90895A1E21A2EAA1BBB1BFD0199
:101AF0000DC0AA1FBB1FEE1FFF1FA217B307E407ED
:101B0000F50720F0A21BB30BE40BF50B661F771F44
:101B1000881F991F1A9469F7609570958095909524
:101B20009B01AC01BD01CF010895052E97FB1EF46A
:101B300000940E94AC0D57FD07D00E94730D07FC66
:101B400003D04EF40C94AC0D5095409530952195F2
:101B50003F4F4F4F5F4F08959095809570956195D9
:101B60007F4F8F4F9F4F0895EE0FFF1F881F8BBF32
:101B70000790F691E02D1994B7FF0C94C40D0E94C4
:101B8000C40D821B930B08950E94CF0DA59F900D4D
:101B9000B49F900DA49F800D911D11240895A29FC4
:101BA000B001B39FC001A39F700D811D1124911D31
:101BB000B29F700D811D1124911D0895F894FFCFDF
:101BC00032000C001400D0070000210000000001CA
:101BD000FF00FF000001010000FF00FF0100000006
:101BE0000000D70341036E0324049F037D03910388
:101BF0000D0A004F4B0020003A00496E76616C6977
:0A1C00006420436F6D6D616E640097
:00000001FF
