:100000000C9462000C948A000C948A000C948A0070
:100010000C94F6040C9444050C948A000C948A0009
:100020000C948A000C948A000C948A000C948A0028
:100030000C948A000C948A000C948A000C948A0018
:100040000C9454040C948A000C94C4040C949E04E4
:100050000C948A000C948A000C948A000C948A00F8
:100060000C948A000C948A000000000023002600F3
:10007000290000000000240027002A0000000000E2
:10008000250028002B0004040404040404040202D4
:100090000202020203030303030301020408102007
:1000A0004080010204081020010204081020000012
:1000B0000008000201000003040700000000000027
:1000C00000009A0911241FBECFEFD8E0DEBFCDBFDC
:1000D00011E0A0E0B1E0E0E6F7E102C005900D928A
:1000E000AA34B107D9F722E0AAE4B1E001C01D9219
:1000F000A235B207E1F710E0C2E6D0E004C02197D4
:10010000FE010E94860BC136D107C9F70E94D605B1
:100110000C94AE0B0C940000833081F028F48130F5
:1001200099F08230A9F008958730A9F08830C9F09D
:100130008430B1F4809180008F7D03C08091800075
:100140008F7780938000089584B58F7784BD08955C
:1001500084B58F7DFBCF8091B0008F778093B00006
:1001600008958091B0008F7DF9CF1F93CF93DF93D7
:10017000282F30E0F901E255FF4F8491F901E6564E
:10018000FF4FD491F901EA57FF4FC491CC23A9F056
:10019000162F81110E948C00EC2FF0E0EE0FFF1F54
:1001A000E458FF4FA591B4918FB7F894EC911111D9
:1001B00008C0D095DE23DC938FBFDF91CF911F91D4
:1001C0000895DE2BF8CFCF93DF9390E0FC01E65645
:1001D000FF4F24918A579F4FFC0184918823D1F0CF
:1001E00090E0880F991FFC01EE58FF4FA591B49144
:1001F000FC01E458FF4FC591D49161110EC09FB727
:10020000F8948C91E22FE0958E238C932881E22341
:10021000E8839FBFDF91CF9108958FB7F894EC9159
:10022000E22BEC938FBFF6CF1F93CF93DF93182F62
:10023000EB0161E00E94E300209739F460E0812F38
:10024000DF91CF911F910C94B500CF3FD10511F4F0
:1002500061E0F5CFE12FF0E0E255FF4FE491E330AC
:1002600031F140F4E130B1F0E230E1F0C038D105D5
:100270007CF7E4CFE73029F1E83059F1E430B1F709
:1002800080918000806280938000D0938B00C09327
:100290008A0004C084B5806884BDC7BDDF91CF915A
:1002A0001F91089584B5806284BDC8BDF7CF809149
:1002B0008000806880938000D0938900C09388007C
:1002C000EDCF8091B00080688093B000C093B30000
:1002D000E5CF8091B00080628093B000C093B400FD
:1002E000DDCFAF92BF92CF92DF92EF92FF920F934A
:1002F0001F93CF93DF936C017B018B01040F151FBC
:10030000EB015E01AE18BF08C017D10759F0699123
:10031000D601ED91FC910190F081E02DC601099587
:10032000892B79F7C501DF91CF911F910F91FF9034
:10033000EF90DF90CF90BF90AF900895FC01538D68
:10034000448D252F30E0842F90E0821B930B5417AF
:1003500010F0CF96089501970895FC01918D828D3C
:10036000981761F0A28DAE0FBF2FB11D5D968C91D5
:10037000928D9F5F9F73928F90E008958FEF9FEF14
:100380000895FC01918D828D981731F0828DE80FD0
:10039000F11D858D90E008958FEF9FEF0895FC018A
:1003A000918D228D892F90E0805C9F4F821B910957
:1003B0008F739927089585EB91E00E94CF0121E08A
:1003C000892B09F420E0822F089580E090E0892BAA
:1003D00029F00E94DB0181110C9400000895FC01BA
:1003E000A48DA80FB92FB11DA35ABF4F2C91848D96
:1003F00090E001968F739927848FA689B7892C93F3
:10040000A089B1898C91837080648C93938D848D45
:10041000981306C00288F389E02D80818F7D808348
:100420000895EF92FF920F931F93CF93DF93EC0108
:1004300081E0888F9B8D8C8D98131AC0E889F9898B
:10044000808185FF15C09FB7F894EE89FF8960838E
:10045000E889F98980818370806480839FBF81E00F
:1004600090E0DF91CF911F910F91FF90EF90089551
:10047000F62E0B8D10E00F5F1F4F0F731127E02E2C
:100480008C8D8E110CC00FB607FCFACFE889F98964
:10049000808185FFF5CFCE010E94EF01F1CFEB8D7A
:1004A000EC0FFD2FF11DE35AFF4FF0829FB7F89438
:1004B0000B8FEA89FB8980818062CFCFCF93DF9356
:1004C000EC01888D8823B9F0AA89BB89E889F9896C
:1004D0008C9185FD03C0808186FD0DC00FB607FCA1
:1004E000F7CF8C9185FFF2CF808185FFEDCFCE01D4
:1004F0000E94EF01E9CFDF91CF9108952F923F92B3
:100500004F925F926F927F928F929F92AF92BF9223
:10051000CF92DF92EF92FF920F931F93CF93DF93CF
:10052000EC018C809D80AE80BF8088859985840198
:10053000081B190BB801012E000C880B990B0E94A7
:10054000B90A9B01AC01688179818A819B810E94F3
:10055000140A0E94810A6B016E847F84A0910401B9
:10056000B0910501AC019B010E948C0B1B012C0179
:100570008C859D85A801481B590B20910201309163
:100580000301429FC001439F900D529F900D112483
:10059000092E000CAA0BBB0BA2019101281B390BE1
:1005A0004A0B5B0BCA01B9019301072C000C440BE9
:1005B000550B620F731F841F951F2091000130910E
:1005C0000101032E000C440B550B0E94670B88861B
:1005D0009986AA86BB8688899989AA89BB89820F50
:1005E000931FA41FB51F8F3F9105A105B10574F599
:1005F00082303FEF9307A307B3076CF160914C0182
:1006000070914D016C9D90016D9D300D7C9D300D64
:100610001124620E731E7F866E86888B998BAA8B3F
:10062000BB8B1D870C87DF91CF911F910F91FF909E
:10063000EF90DF90CF90BF90AF909F908F907F9082
:100640006F905F904F903F902F9008958FEF90E0C4
:10065000A0E0B0E0E2CF81E09FEFAFEFBFEFDDCFF2
:10066000EEE6F1E010821182128213828091820103
:1006700090918301A0918401B09185018483958339
:10068000A683B78380879187A287B387108A118A50
:10069000128A138A1586148617861686E6E5F1E017
:1006A000108211821282138280916A0190916B01F3
:1006B000A0916C01B0916D0184839583A683B7836B
:1006C00080879187A287B387108A118A128A138A3A
:1006D00015861486178616860895FC010190002061
:1006E000E9F73197AF01481B590BBC0185EB91E04D
:1006F0000C947101CF93DF930E946D03EC0180E3B2
:1007000091E00E946D038C0F9D1FDF91CF910895A2
:100710008F929F92AF92BF92CF92DF92EF92FF9211
:100720000F931F93CF93DF93CDB7DEB7A1970FB68B
:10073000F894DEBF0FBECDBF6B017C01F7FE41C058
:100740006DE285EB91E00E9411028C012227332794
:10075000A9012C193D094E095F0919A2CE01819604
:100760007C019AE0892E912CA12CB12CCA01B901EF
:10077000A50194010E94450B605DF70162937F0122
:10078000211531054105510589F790E080E030974A
:1007900019F0CF010E946D03800F911FA1960FB633
:1007A000F894DEBF0FBECDBFDF91CF911F910F91A7
:1007B000FF90EF90DF90CF90BF90AF909F908F9081
:1007C0000895AC019B0119A28E010F5D1F4F8AE0B5
:1007D000C82ED12CE12CF12CCA01B901A701960138
:1007E0000E94450B605DF80162938F012115310570
:1007F0004105510589F790E080E0309779F2CF010B
:100800000E946D03CBCFCF93DF930E948803EC014E
:1008100080E391E00E946D038C0F9D1FDF91CF91CB
:100820000895CF93DF93EB0120E097FF04C09195EB
:100830008195910921E0BC018F3F910519F014F0D9
:100840006FEF70E0211122C08AE00E94140170E075
:1008500060E086E00E94140180E0D7FF04C0D195DB
:10086000C195D10981E0BE01CF3FD10519F014F047
:100870006FEF70E0811111C089E00E94140170E0F7
:1008800060E085E0DF91CF910C94140186E00E9436
:10089000140170E060E08AE0DDCF85E00E94140181
:1008A00070E060E089E0EECF1F920F920FB60F92DA
:1008B00011242F933F938F939F93AF93BF93809176
:1008C000B1019091B201A091B301B091B401309106
:1008D000B00123E0230F2D3758F50196A11DB11D5E
:1008E0002093B0018093B1019093B201A093B30122
:1008F000B093B4018091AC019091AD01A091AE0193
:10090000B091AF010196A11DB11D8093AC019093F0
:10091000AD01A093AE01B093AF01BF91AF919F9194
:100920008F913F912F910F900FBE0F901F901895B0
:1009300026E8230F0296A11DB11DD2CF1F920F9260
:100940000FB60F9211242F933F934F935F936F93A2
:100950007F938F939F93AF93BF93EF93FF9385EB19
:1009600091E00E94EF01FF91EF91BF91AF919F91B4
:100970008F917F916F915F914F913F912F910F9048
:100980000FBE0F901F9018951F920F920FB60F92E7
:1009900011242F938F939F93EF93FF93E091C501C1
:1009A000F091C6018081E091CB01F091CC0182FDF4
:1009B0001BC090818091CE018F5F8F732091CF01FA
:1009C000821741F0E091CE01F0E0EB54FE4F958F9D
:1009D0008093CE01FF91EF919F918F912F910F9076
:1009E0000FBE0F901F9018958081F4CF1F920F9229
:1009F0000FB60F9211244F935F936F937F938F9352
:100A00009F93AF93BF93EF93FF93E0914B01EE0F52
:100A1000EE0FE0934B0186B190E044E09595879509
:100A20004A95E1F783709927E82BE0934B014091B9
:100A30006A0150916B0160916C0170916D01EF70D2
:100A4000F0E0E25FFE4F9081892F990F990BAA0B7E
:100A5000BB0B840F951FA61FB71F80936A0190934D
:100A60006B01A0936C01B0936D01FF91EF91BF9169
:100A7000AF919F918F917F916F915F914F910F9067
:100A80000FBE0F901F9018951F920F920FB60F92E6
:100A900011244F935F936F937F938F939F93AF93A3
:100AA000BF93EF93FF93E0914A01EE0FEE0FE093B7
:100AB0004A0189B190E095958795959587958370C2
:100AC0009927E82BE0934A014091820150918301DC
:100AD0006091840170918501EF70F0E0E25FFE4F5C
:100AE0009081892F990F990BAA0BBB0B840F951F2F
:100AF000A61FB71F8093820190938301A093840166
:100B0000B0938501FF91EF91BF91AF919F918F912C
:100B10007F916F915F914F910F900FBE0F901F903B
:100B20001895CF92DF92EF92FF920F931F93E82FC9
:100B3000F92F05C0015011092109310961F1908196
:100B400096239417B9F305C0015011092109310901
:100B500011F1908196239413F7CFC12CD12CE12C65
:100B6000F12C0AC08FEFC81AD80AE80AF80A0C1547
:100B70001D052E053F0579F080818623841791F3AA
:100B80006C2D7D2D8E2D9F2D1F910F91FF90EF903D
:100B9000DF90CF90089560E070E080E090E01F91DA
:100BA0000F91FF90EF90DF90CF900895CF93DF9358
:100BB000CDB7DEB72A970FB6F894DEBF0FBECDBF14
:100BC000789484B5826084BD84B5816084BD85B528
:100BD000826085BD85B5816085BD80916E00816034
:100BE00080936E00109281008091810082608093DA
:100BF00081008091810081608093810080918000DC
:100C00008160809380008091B10084608093B10006
:100C10008091B00081608093B00080917A00846000
:100C200080937A0080917A00826080937A0080912C
:100C30007A00816080937A0080917A008068809346
:100C40007A001092C100E091C501F091C60182E0E6
:100C50008083E091C501F091C6011082E091C1014D
:100C6000F091C2011082E091C301F091C40180E1D2
:100C700080831092CD01E091C901F091CA0186E014
:100C80008083E091C701F091C801808180618083F9
:100C9000E091C701F091C801808188608083E09174
:100CA000C701F091C801808180688083E091C7010D
:100CB000F091C80180818F7D8083529853983C9831
:100CC0003D985A9A5B9A449A459A80916D008C603F
:100CD00080936D0080916C00806380936C008091A4
:100CE000680086608093680061E08CE00E94B50037
:100CF00061E08DE00E94B5000E9430033AE3832E4C
:100D0000912CA12CB12C22242394312C58E9E52ECE
:100D100051E0F52E2FE0C22ED12C85EB91E00E9400
:100D2000CF01181619060CF069C285EB91E00E94FC
:100D3000AD012091AA013091AB018D3009F01EC2A6
:100D40002130310509F050C0E091A801F091A901CE
:100D5000E856FE4F1082FA86E98688E991E00E9403
:100D6000C7098C01092E000CAA0BBB0B8093520102
:100D700090935301A0935401B093550188E891E0FA
:100D80000E94C709AC01092E000C660B770B40933B
:100D90004E0150934F016093500170935101E091C7
:100DA0008701E156E83108F0E6C10E2E000CFF0B7A
:100DB000E452F94F0C94860B1C071507A50764072E
:100DC000FD07BB08BB08BB08BB08BB08BB08BB08CA
:100DD0002708BB088008B607BB081408BB08BB0877
:100DE000FF06BB0894078B072230310509F0B3CF0B
:100DF000E091A801F091A901E857FE4FABCF8E0119
:100E00000F5F1F4FAE01475F5F4F68E371E0898559
:100E10009A850E94E509009709F494C10E94C709C8
:100E2000D8018D939D938D01EDCF60E071EE80E050
:100E300090E00E94030420C0802F0E3010F082EF5B
:100E4000800F8770806480937C0080917A0080643A
:100E500080937A0080917A0086FDFCCF60917800C3
:100E600070917900072E000C880B990B0E94880363
:100E700080E391E00E946D0310928701E8E9F1E0C0
:100E800020E111922A95E9F7E8E8F1E0DF0120E19D
:100E90001D922A95E9F71092520110925301109277
:100EA00054011092550110924E0110924F01109270
:100EB0005001109251011092AB011092AA011092B0
:100EC000A9011092A80129CF98013327F901E25511
:100ED000FF4F8491F901E656FF4F1491F901EA574B
:100EE000FF4F049170E060E0002309F4BBCF811153
:100EF0000E948C00E02FF0E0EE0FFF1FE859FF4F3B
:100F0000A591B491EC911E2391E080E009F490E06A
:100F1000692F782FA7CFBC01802F0E94140183E393
:100F200091E00E947A03A8CF411551056105710532
:100F300029F460E0802F0E94B500F1CF41305105C7
:100F40006105710561F761E0F5CF41155105610556
:100F5000710529F460E0802F0E94E300E0CF41306A
:100F6000510561057105D9F661E0F5CF61E0802F8B
:100F70000E94E30060E0802F0E94B50083E090E0D3
:100F80000197F1F761E0802F0E94B500C60101973B
:100F9000F1F760E0802F0E94B50060E0802F0E9492
:100FA000E3001127F801E656FF4F6491F801EA5774
:100FB000FF4FE491F0E0EE0FFF1FE859FF4F8591DE
:100FC000949100E412E42FE030E0462F0E94910556
:100FD000611571058105910529F06F5F7F4F8F4F76
:100FE0009F4F9F70A50194010E94670BCA01B90130
:100FF0000E94B90A0E94810A1CCF609182017091FF
:10100000830180918401909185010E94880386E389
:1010100091E00E946D0360916A0170916B01809173
:101020006C0190916D0105CF1092820110928301A5
:10103000109284011092850110926A0110926B0146
:1010400010926C0110926D010E94300368CF2FB78F
:10105000F8948091B1019091B201A091B301B09147
:10106000B4012FBF8093060190930701A09308015C
:10107000B093090140905201509053016090540187
:10108000709055014114510461047104A9F58091D7
:101090004E0190914F01A0915001B0915101892BC7
:1010A0008A2B8B2B49F570E060E090E080E00E9495
:1010B00011040E94300310928601C301B2010E9404
:1010C000B90A60936E0170936F01809370019093E1
:1010D000710160914E0170914F018091500190918A
:1010E00051010E94B90A6093560170935701809391
:1010F00058019093590113CF21E020938601DDCF51
:101100002FB7F8948091B1019091B201A091B301F1
:10111000B091B4012FBF8093060190930701A09373
:101120000801B09309010E9430031092860160917A
:101130004E0170914F0180915201909153010E9494
:101140001104EDCE89819A81909305018093040169
:101150008B819C8190930301809302018D819E81FC
:1011600090934D0180934C018F819885909301015C
:1011700080930001D4CE8AE391E0D3CE8032D1F4C3
:101180002115310529F43092AB012092AA01C5CD79
:101190002130310509F0C1CDE091A801F091A901FC
:1011A000E856FE4F108282E090E09093AB0180936E
:1011B000AA0185CE2115310519F480938701ADCDA3
:1011C0002130310579F42091A8013091A901F9016C
:1011D000E856FE4F80832F5F3F4F3093A901209345
:1011E000A8019BCD2230310509F097CD2091A801AF
:1011F0003091A901F901E857FE4FECCF2FB7F894D1
:101200008091B1019091B201A091B301B091B4016C
:101210002FBF40900A0150900B0160900C0170901C
:101220000D01481659066A067B0608F03FC08091FA
:10123000820190918301A0918401B09185018093F6
:10124000720190937301A0937401B0937501809122
:101250006A0190916B01A0916C01B0916D01809336
:101260005A0190935B01A0935C01B0935D01809162
:10127000860181114CC080917A0190917B01892B6C
:1012800031F48091620190916301892B11F00E94E9
:10129000300391E2490E511C611C711C40920A01FD
:1012A00050920B0160920C0170920D012FB7F894CF
:1012B0008091B1019091B201A091B301B091B401BC
:1012C0002FBF409106015091070160910801709174
:1012D0000901841B950BA60BB70B813D9740A10517
:1012E000B10540F070E060E090E080E00E94110401
:1012F0001092860180E090E0892B09F40ECD0E94C7
:10130000DB01882309F406CD0E94000003CD86E5A9
:1013100091E00E947E028EE691E00E947E02609142
:1013200066017091670180917E0190917F010E941A
:101330001104AFCFE5EBF1E01382128288EE93E067
:10134000A0E0B0E084839583A683B78382E291E036
:101350009183808385EC90E09587848784EC90E08E
:101360009787868780EC90E0918B808B81EC90E072
:10137000938B828B82EC90E0958B848B86EC90E053
:10138000978B868B118E128E138E148E0895FC010E
:1013900088279927E89421912032E9F3293010F029
:1013A0002E30C8F32B3241F02D3239F4689404C04A
:1013B0000E940C0A820F911D219120532A30C0F304
:1013C0001EF4909581959F4F0895FA01A191B081E7
:1013D000009719F41097E1F0CD01DC01CD010D90DB
:1013E000002011F4C00113C0FB012191222319F048
:1013F0002015D9F7F3CFFB012191201519F41E9286
:10140000119606C02223C1F70D900020A1F7D0014C
:10141000FA01A193B08308957AE0979F902D879F5A
:10142000802D910D112408955058BB27AA270E94A2
:101430002C0A0C940B0B0E94FD0A38F00E94040B3E
:1014400020F039F49F3F19F426F40C94FA0A0EF4B4
:10145000E095E7FB0C94F40AE92F0E941C0B58F36B
:10146000BA17620773078407950720F079F4A6F589
:101470000C943E0B0EF4E0950B2EBA2FA02D0B0111
:10148000B90190010C01CA01A0011124FF27591BC9
:1014900099F0593F50F4503E68F11A16F040A22FCF
:1014A000232F342F4427585FF3CF46953795279540
:1014B000A795F0405395C9F77EF41F16BA0B620B3F
:1014C000730B840BBAF09150A1F0FF0FBB1F661F86
:1014D000771F881FC2F70EC0BA0F621F731F841FC9
:1014E00048F4879577956795B795F7959E3F08F0EF
:1014F000B0CF9395880F08F09927EE0F97958795B1
:1015000008950E94880A6894B1110C943F0B0895C5
:101510000E94240B88F09F5798F0B92F9927B75154
:10152000B0F0E1F0660F771F881F991F1AF0BA9587
:10153000C9F714C0B13091F00E943E0BB1E008959C
:101540000C943E0B672F782F8827B85F39F0B93F8E
:10155000CCF3869577956795B395D9F73EF490953A
:101560008095709561957F4F8F4F9F4F0895E894B8
:1015700009C097FB3EF490958095709561957F4FDB
:101580008F4F9F4F9923A9F0F92F96E9BB27939589
:10159000F695879577956795B795F111F8CFFAF499
:1015A000BB0F11F460FF1BC06F5F7F4F8F4F9F4FCA
:1015B00016C0882311F096E911C0772321F09EE828
:1015C000872F762F05C0662371F096E8862F70E08E
:1015D00060E02AF09A95660F771F881FDAF7880F68
:1015E0009695879597F9089597F99F6780E870E039
:1015F00060E008959FEF80EC089500240A94161689
:10160000170618060906089500240A9412161306F0
:10161000140605060895092E0394000C11F488237E
:1016200052F0BB0F40F4BF2B11F460FF04C06F5F9A
:101630007F4F8F4F9F4F089557FD9058440F551F70
:1016400059F05F3F71F04795880F97FB991F61F044
:101650009F3F79F087950895121613061406551FBB
:10166000F2CF4695F1DF08C0161617061806991F27
:10167000F1CF86957105610508940895E894BB271C
:1016800066277727CB0197F90895A1E21A2EAA1BA6
:10169000BB1BFD010DC0AA1FBB1FEE1FFF1FA21722
:1016A000B307E407F50720F0A21BB30BE40BF50B1F
:1016B000661F771F881F991F1A9469F760957095A8
:1016C000809590959B01AC01BD01CF010895052E39
:1016D00097FB1EF400940E947E0B57FD07D00E94DA
:1016E000450B07FC03D04EF40C947E0B50954095AF
:1016F000309521953F4F4F4F5F4F089590958095BE
:10170000709561957F4F8F4F9F4F0895EE0FFF1F8C
:101710000590F491E02D0994B7FF0C94940B0E946E
:10172000940B821B930B08950E949F0BA59F900D15
:10173000B49F900DA49F800D911D11240895A29F28
:10174000B001B39FC001A39F700D811D1124911D95
:10175000B29F700D811D1124911D0895F894FFCF43
:1017600032000C001400D00700002100000000012E
:10177000FF00FF000001010000FF00FF010000006A
:101780000000110271019E015E02CF01AD01C10195
:101790000D0A004F4B0020003A00496E76616C69DB
:0A17A0006420436F6D6D616E6400FC
:00000001FF
